{
  "_format": "hh-sol-artifact-1",
  "contractName": "Marketplace",
  "sourceName": "src/backend/contracts/Marketplace.sol",
  "abi": [
    {
      "inputs": [
        {
          "internalType": "uint256",
          "name": "_feePercent",
          "type": "uint256"
        }
      ],
      "stateMutability": "nonpayable",
      "type": "constructor"
    },
    {
      "anonymous": false,
      "inputs": [
        {
          "indexed": false,
          "internalType": "uint256",
          "name": "itemId",
          "type": "uint256"
        },
        {
          "indexed": true,
          "internalType": "address",
          "name": "nft",
          "type": "address"
        },
        {
          "indexed": false,
          "internalType": "uint256",
          "name": "tokenId",
          "type": "uint256"
        },
        {
          "indexed": false,
          "internalType": "uint256",
          "name": "price",
          "type": "uint256"
        },
        {
          "indexed": true,
          "internalType": "address",
          "name": "seller",
          "type": "address"
        },
        {
          "indexed": true,
          "internalType": "address",
          "name": "buyer",
          "type": "address"
        }
      ],
      "name": "Bought",
      "type": "event"
    },
    {
      "anonymous": false,
      "inputs": [
        {
          "indexed": false,
          "internalType": "uint256",
          "name": "itemId",
          "type": "uint256"
        },
        {
          "indexed": true,
          "internalType": "address",
          "name": "nft",
          "type": "address"
        },
        {
          "indexed": false,
          "internalType": "uint256",
          "name": "tokenId",
          "type": "uint256"
        },
        {
          "indexed": false,
          "internalType": "uint256",
          "name": "price",
          "type": "uint256"
        },
        {
          "indexed": true,
          "internalType": "address",
          "name": "seller",
          "type": "address"
        }
      ],
      "name": "Offered",
      "type": "event"
    },
    {
      "inputs": [
        {
          "internalType": "uint256",
          "name": "_itemId",
          "type": "uint256"
        },
        {
          "internalType": "uint256",
          "name": "_price",
          "type": "uint256"
        }
      ],
      "name": "createOffer",
      "outputs": [],
      "stateMutability": "nonpayable",
      "type": "function"
    },
    {
      "inputs": [],
      "name": "feeAccount",
      "outputs": [
        {
          "internalType": "address payable",
          "name": "",
          "type": "address"
        }
      ],
      "stateMutability": "view",
      "type": "function"
    },
    {
      "inputs": [],
      "name": "feePercent",
      "outputs": [
        {
          "internalType": "uint256",
          "name": "",
          "type": "uint256"
        }
      ],
      "stateMutability": "view",
      "type": "function"
    },
    {
      "inputs": [
        {
          "internalType": "uint256",
          "name": "_itemId",
          "type": "uint256"
        }
      ],
      "name": "getTotalPrice",
      "outputs": [
        {
          "internalType": "uint256",
          "name": "",
          "type": "uint256"
        }
      ],
      "stateMutability": "view",
      "type": "function"
    },
    {
      "inputs": [],
      "name": "itemCount",
      "outputs": [
        {
          "internalType": "uint256",
          "name": "",
          "type": "uint256"
        }
      ],
      "stateMutability": "view",
      "type": "function"
    },
    {
      "inputs": [
        {
          "internalType": "uint256",
          "name": "",
          "type": "uint256"
        }
      ],
      "name": "items",
      "outputs": [
        {
          "internalType": "uint256",
          "name": "itemId",
          "type": "uint256"
        },
        {
          "internalType": "contract IERC721",
          "name": "nft",
          "type": "address"
        },
        {
          "internalType": "uint256",
          "name": "tokenId",
          "type": "uint256"
        },
        {
          "internalType": "uint256",
          "name": "price",
          "type": "uint256"
        },
        {
          "internalType": "address payable",
          "name": "seller",
          "type": "address"
        },
        {
          "internalType": "address payable",
          "name": "buyer",
          "type": "address"
        },
        {
          "internalType": "bool",
          "name": "sold",
          "type": "bool"
        }
      ],
      "stateMutability": "view",
      "type": "function"
    },
    {
      "inputs": [
        {
          "internalType": "contract IERC721",
          "name": "_nft",
          "type": "address"
        },
        {
          "internalType": "uint256",
          "name": "_tokenId",
          "type": "uint256"
        },
        {
          "internalType": "uint256",
          "name": "_price",
          "type": "uint256"
        }
      ],
      "name": "makeItem",
      "outputs": [],
      "stateMutability": "nonpayable",
      "type": "function"
    },
    {
      "inputs": [
        {
          "internalType": "uint256",
          "name": "_itemId",
          "type": "uint256"
        }
      ],
      "name": "purchaseItem",
      "outputs": [],
      "stateMutability": "payable",
      "type": "function"
    }
  ],
  "bytecode": "0x60c06040523480156200001157600080fd5b50604051620018e6380380620018e683398181016040528101906200003791906200009c565b60016000819055503373ffffffffffffffffffffffffffffffffffffffff1660808173ffffffffffffffffffffffffffffffffffffffff1660601b815250508060a0818152505050620000ec565b6000815190506200009681620000d2565b92915050565b600060208284031215620000af57600080fd5b6000620000bf8482850162000085565b91505092915050565b6000819050919050565b620000dd81620000c8565b8114620000e957600080fd5b50565b60805160601c60a0516117c36200012360003960008181610678015261074f01526000818161064e015261097501526117c36000f3fe60806040526004361061007b5760003560e01c8063bfb231d21161004e578063bfb231d21461012a578063ca7dd3751461016d578063d38ea5bf146101aa578063fa00afc7146101c65761007b565b80631afed8751461008057806365e17c9d146100a95780636bfb0d01146100d45780637fd6f15c146100ff575b600080fd5b34801561008c57600080fd5b506100a760048036038101906100a29190610f96565b6101ef565b005b3480156100b557600080fd5b506100be61064c565b6040516100cb9190611135565b60405180910390f35b3480156100e057600080fd5b506100e9610670565b6040516100f69190611287565b60405180910390f35b34801561010b57600080fd5b50610114610676565b6040516101219190611287565b60405180910390f35b34801561013657600080fd5b50610151600480360381019061014c9190610f6d565b61069a565b60405161016497969594939291906112a2565b60405180910390f35b34801561017957600080fd5b50610194600480360381019061018f9190610f6d565b610749565b6040516101a19190611287565b60405180910390f35b6101c460048036038101906101bf9190610f6d565b6107ac565b005b3480156101d257600080fd5b506101ed60048036038101906101e89190610f1e565b610bbe565b005b60026000541415610235576040517f08c379a000000000000000000000000000000000000000000000000000000000815260040161022c90611247565b60405180910390fd5b600260008190555060006002600084815260200190815260200160002090503373ffffffffffffffffffffffffffffffffffffffff168160050160009054906101000a900473ffffffffffffffffffffffffffffffffffffffff1673ffffffffffffffffffffffffffffffffffffffff16146102e6576040517f08c379a00000000000000000000000000000000000000000000000000000000081526004016102dd90611187565b60405180910390fd5b8060050160149054906101000a900460ff1615610338576040517f08c379a000000000000000000000000000000000000000000000000000000000815260040161032f90611267565b60405180910390fd5b8060030154821161037e576040517f08c379a000000000000000000000000000000000000000000000000000000000815260040161037590611207565b60405180910390fd5b60016000815480929190610391906114fe565b91905055506040518060e0016040528060015481526020018260010160009054906101000a900473ffffffffffffffffffffffffffffffffffffffff1673ffffffffffffffffffffffffffffffffffffffff168152602001826002015481526020018381526020018260050160009054906101000a900473ffffffffffffffffffffffffffffffffffffffff1673ffffffffffffffffffffffffffffffffffffffff168152602001600073ffffffffffffffffffffffffffffffffffffffff168152602001600015158152506002600060015481526020019081526020016000206000820151816000015560208201518160010160006101000a81548173ffffffffffffffffffffffffffffffffffffffff021916908373ffffffffffffffffffffffffffffffffffffffff160217905550604082015181600201556060820151816003015560808201518160040160006101000a81548173ffffffffffffffffffffffffffffffffffffffff021916908373ffffffffffffffffffffffffffffffffffffffff16021790555060a08201518160050160006101000a81548173ffffffffffffffffffffffffffffffffffffffff021916908373ffffffffffffffffffffffffffffffffffffffff16021790555060c08201518160050160146101000a81548160ff0219169083151502179055509050508060050160009054906101000a900473ffffffffffffffffffffffffffffffffffffffff1673ffffffffffffffffffffffffffffffffffffffff168160010160009054906101000a900473ffffffffffffffffffffffffffffffffffffffff1673ffffffffffffffffffffffffffffffffffffffff167f655a0cf9c8db81512be9a76dc1c5ae5380b8816ce6ad659cd61b715e2999d59a60015484600201548660405161063793929190611311565b60405180910390a35060016000819055505050565b7f000000000000000000000000000000000000000000000000000000000000000081565b60015481565b7f000000000000000000000000000000000000000000000000000000000000000081565b60026020528060005260406000206000915090508060000154908060010160009054906101000a900473ffffffffffffffffffffffffffffffffffffffff16908060020154908060030154908060040160009054906101000a900473ffffffffffffffffffffffffffffffffffffffff16908060050160009054906101000a900473ffffffffffffffffffffffffffffffffffffffff16908060050160149054906101000a900460ff16905087565b600060647f0000000000000000000000000000000000000000000000000000000000000000606461077a9190611359565b600260008581526020019081526020016000206003015461079b91906113e0565b6107a591906113af565b9050919050565b600260005414156107f2576040517f08c379a00000000000000000000000000000000000000000000000000000000081526004016107e990611247565b60405180910390fd5b6002600081905550600061080582610749565b9050600060026000848152602001908152602001600020905060008311801561083057506001548311155b61086f576040517f08c379a000000000000000000000000000000000000000000000000000000000815260040161086690611227565b60405180910390fd5b813410156108b2576040517f08c379a00000000000000000000000000000000000000000000000000000000081526004016108a9906111e7565b60405180910390fd5b8060050160149054906101000a900460ff1615610904576040517f08c379a00000000000000000000000000000000000000000000000000000000081526004016108fb906111a7565b60405180910390fd5b8060040160009054906101000a900473ffffffffffffffffffffffffffffffffffffffff1673ffffffffffffffffffffffffffffffffffffffff166108fc82600301549081150290604051600060405180830381858888f19350505050158015610972573d6000803e3d6000fd5b507f000000000000000000000000000000000000000000000000000000000000000073ffffffffffffffffffffffffffffffffffffffff166108fc8260030154846109bd919061143a565b9081150290604051600060405180830381858888f193505050501580156109e8573d6000803e3d6000fd5b5060018160050160146101000a81548160ff02191690831515021790555060008160050160006101000a81548173ffffffffffffffffffffffffffffffffffffffff021916908373ffffffffffffffffffffffffffffffffffffffff1602179055508060010160009054906101000a900473ffffffffffffffffffffffffffffffffffffffff1673ffffffffffffffffffffffffffffffffffffffff166323b872dd303384600201546040518463ffffffff1660e01b8152600401610aaf93929190611150565b600060405180830381600087803b158015610ac957600080fd5b505af1158015610add573d6000803e3d6000fd5b505050503373ffffffffffffffffffffffffffffffffffffffff168160040160009054906101000a900473ffffffffffffffffffffffffffffffffffffffff1673ffffffffffffffffffffffffffffffffffffffff168260010160009054906101000a900473ffffffffffffffffffffffffffffffffffffffff1673ffffffffffffffffffffffffffffffffffffffff167f8b4c9c8a607d67b321582dd8461041b1dc2ceeca70c8b7f37f8e02095cf2e76d8685600201548660030154604051610ba993929190611311565b60405180910390a45050600160008190555050565b60026000541415610c04576040517f08c379a0000000000000000000000000000000000000000000000000000000008152600401610bfb90611247565b60405180910390fd5b600260008190555060008111610c4f576040517f08c379a0000000000000000000000000000000000000000000000000000000008152600401610c46906111c7565b60405180910390fd5b60016000815480929190610c62906114fe565b91905055508273ffffffffffffffffffffffffffffffffffffffff166323b872dd3330856040518463ffffffff1660e01b8152600401610ca493929190611150565b600060405180830381600087803b158015610cbe57600080fd5b505af1158015610cd2573d6000803e3d6000fd5b505050506040518060e0016040528060015481526020018473ffffffffffffffffffffffffffffffffffffffff1681526020018381526020018281526020013373ffffffffffffffffffffffffffffffffffffffff168152602001600073ffffffffffffffffffffffffffffffffffffffff168152602001600015158152506002600060015481526020019081526020016000206000820151816000015560208201518160010160006101000a81548173ffffffffffffffffffffffffffffffffffffffff021916908373ffffffffffffffffffffffffffffffffffffffff160217905550604082015181600201556060820151816003015560808201518160040160006101000a81548173ffffffffffffffffffffffffffffffffffffffff021916908373ffffffffffffffffffffffffffffffffffffffff16021790555060a08201518160050160006101000a81548173ffffffffffffffffffffffffffffffffffffffff021916908373ffffffffffffffffffffffffffffffffffffffff16021790555060c08201518160050160146101000a81548160ff0219169083151502179055509050503373ffffffffffffffffffffffffffffffffffffffff168373ffffffffffffffffffffffffffffffffffffffff167f655a0cf9c8db81512be9a76dc1c5ae5380b8816ce6ad659cd61b715e2999d59a6001548585604051610edf93929190611311565b60405180910390a36001600081905550505050565b600081359050610f038161175f565b92915050565b600081359050610f1881611776565b92915050565b600080600060608486031215610f3357600080fd5b6000610f4186828701610ef4565b9350506020610f5286828701610f09565b9250506040610f6386828701610f09565b9150509250925092565b600060208284031215610f7f57600080fd5b6000610f8d84828501610f09565b91505092915050565b60008060408385031215610fa957600080fd5b6000610fb785828601610f09565b9250506020610fc885828601610f09565b9150509250929050565b610fdb81611480565b82525050565b610fea8161146e565b82525050565b610ff981611492565b82525050565b611008816114da565b82525050565b600061101b603d83611348565b9150611026826115a5565b604082019050919050565b600061103e601183611348565b9150611049826115f4565b602082019050919050565b6000611061601f83611348565b915061106c8261161d565b602082019050919050565b6000611084603383611348565b915061108f82611646565b604082019050919050565b60006110a7603483611348565b91506110b282611695565b604082019050919050565b60006110ca601283611348565b91506110d5826116e4565b602082019050919050565b60006110ed601f83611348565b91506110f88261170d565b602082019050919050565b6000611110601183611348565b915061111b82611736565b602082019050919050565b61112f816114d0565b82525050565b600060208201905061114a6000830184610fd2565b92915050565b60006060820190506111656000830186610fe1565b6111726020830185610fe1565b61117f6040830184611126565b949350505050565b600060208201905081810360008301526111a08161100e565b9050919050565b600060208201905081810360008301526111c081611031565b9050919050565b600060208201905081810360008301526111e081611054565b9050919050565b6000602082019050818103600083015261120081611077565b9050919050565b600060208201905081810360008301526112208161109a565b9050919050565b60006020820190508181036000830152611240816110bd565b9050919050565b60006020820190508181036000830152611260816110e0565b9050919050565b6000602082019050818103600083015261128081611103565b9050919050565b600060208201905061129c6000830184611126565b92915050565b600060e0820190506112b7600083018a611126565b6112c46020830189610fff565b6112d16040830188611126565b6112de6060830187611126565b6112eb6080830186610fd2565b6112f860a0830185610fd2565b61130560c0830184610ff0565b98975050505050505050565b60006060820190506113266000830186611126565b6113336020830185611126565b6113406040830184611126565b949350505050565b600082825260208201905092915050565b6000611364826114d0565b915061136f836114d0565b9250827fffffffffffffffffffffffffffffffffffffffffffffffffffffffffffffffff038211156113a4576113a3611547565b5b828201905092915050565b60006113ba826114d0565b91506113c5836114d0565b9250826113d5576113d4611576565b5b828204905092915050565b60006113eb826114d0565b91506113f6836114d0565b9250817fffffffffffffffffffffffffffffffffffffffffffffffffffffffffffffffff048311821515161561142f5761142e611547565b5b828202905092915050565b6000611445826114d0565b9150611450836114d0565b92508282101561146357611462611547565b5b828203905092915050565b6000611479826114b0565b9050919050565b600061148b826114b0565b9050919050565b60008115159050919050565b60006114a98261146e565b9050919050565b600073ffffffffffffffffffffffffffffffffffffffff82169050919050565b6000819050919050565b60006114e5826114ec565b9050919050565b60006114f7826114b0565b9050919050565b6000611509826114d0565b91507fffffffffffffffffffffffffffffffffffffffffffffffffffffffffffffffff82141561153c5761153b611547565b5b600182019050919050565b7f4e487b7100000000000000000000000000000000000000000000000000000000600052601160045260246000fd5b7f4e487b7100000000000000000000000000000000000000000000000000000000600052601260045260246000fd5b7f4f6e6c79207468652063757272656e74206f776e65722063616e20637265617460008201527f6520616e206f6666657220746f20726573656c6c20746865206974656d000000602082015250565b7f6974656d20616c726561647920736f6c64000000000000000000000000000000600082015250565b7f5072696365206d7573742062652067726561746572207468616e207a65726f00600082015250565b7f6e6f7420656e6f75676820657468657220746f20636f766572206974656d207060008201527f7269636520616e64206d61726b65742066656500000000000000000000000000602082015250565b7f526573656c6c207072696365206d75737420626520677265617465722074686160008201527f6e20746865206f726967696e616c207072696365000000000000000000000000602082015250565b7f6974656d20646f65736e27742065786973740000000000000000000000000000600082015250565b7f5265656e7472616e637947756172643a207265656e7472616e742063616c6c00600082015250565b7f4974656d20616c726561647920736f6c64000000000000000000000000000000600082015250565b6117688161149e565b811461177357600080fd5b50565b61177f816114d0565b811461178a57600080fd5b5056fea264697066735822122095c68264adf1a235a3325bcab9cb30e3dcf3c7972feccfb32658df8f66b4857364736f6c63430008040033",
  "linkReferences": {},
  "deployedLinkReferences": {}
}